{
  "_format": "hh-sol-artifact-1",
  "contractName": "NFT",
  "sourceName": "contracts/NFT.sol",
  "abi": [
    {
      "inputs": [],
      "stateMutability": "nonpayable",
      "type": "constructor"
    },
    {
      "anonymous": false,
      "inputs": [
        {
          "indexed": true,
          "internalType": "address",
          "name": "owner",
          "type": "address"
        },
        {
          "indexed": true,
          "internalType": "address",
          "name": "approved",
          "type": "address"
        },
        {
          "indexed": true,
          "internalType": "uint256",
          "name": "tokenId",
          "type": "uint256"
        }
      ],
      "name": "Approval",
      "type": "event"
    },
    {
      "anonymous": false,
      "inputs": [
        {
          "indexed": true,
          "internalType": "address",
          "name": "owner",
          "type": "address"
        },
        {
          "indexed": true,
          "internalType": "address",
          "name": "operator",
          "type": "address"
        },
        {
          "indexed": false,
          "internalType": "bool",
          "name": "approved",
          "type": "bool"
        }
      ],
      "name": "ApprovalForAll",
      "type": "event"
    },
    {
      "anonymous": false,
      "inputs": [
        {
          "indexed": true,
          "internalType": "address",
          "name": "previousOwner",
          "type": "address"
        },
        {
          "indexed": true,
          "internalType": "address",
          "name": "newOwner",
          "type": "address"
        }
      ],
      "name": "OwnershipTransferred",
      "type": "event"
    },
    {
      "anonymous": false,
      "inputs": [
        {
          "indexed": true,
          "internalType": "address",
          "name": "from",
          "type": "address"
        },
        {
          "indexed": true,
          "internalType": "address",
          "name": "to",
          "type": "address"
        },
        {
          "indexed": true,
          "internalType": "uint256",
          "name": "tokenId",
          "type": "uint256"
        }
      ],
      "name": "Transfer",
      "type": "event"
    },
    {
      "inputs": [
        {
          "internalType": "uint256",
          "name": "",
          "type": "uint256"
        }
      ],
      "name": "_creators",
      "outputs": [
        {
          "internalType": "address",
          "name": "",
          "type": "address"
        }
      ],
      "stateMutability": "view",
      "type": "function"
    },
    {
      "inputs": [
        {
          "internalType": "address",
          "name": "to",
          "type": "address"
        },
        {
          "internalType": "uint256",
          "name": "tokenId",
          "type": "uint256"
        }
      ],
      "name": "approve",
      "outputs": [],
      "stateMutability": "nonpayable",
      "type": "function"
    },
    {
      "inputs": [
        {
          "internalType": "address",
          "name": "owner",
          "type": "address"
        }
      ],
      "name": "balanceOf",
      "outputs": [
        {
          "internalType": "uint256",
          "name": "",
          "type": "uint256"
        }
      ],
      "stateMutability": "view",
      "type": "function"
    },
    {
      "inputs": [
        {
          "internalType": "uint256",
          "name": "tokenId",
          "type": "uint256"
        }
      ],
      "name": "creatorOf",
      "outputs": [
        {
          "internalType": "address",
          "name": "",
          "type": "address"
        }
      ],
      "stateMutability": "view",
      "type": "function"
    },
    {
      "inputs": [
        {
          "internalType": "uint256",
          "name": "tokenId",
          "type": "uint256"
        }
      ],
      "name": "getApproved",
      "outputs": [
        {
          "internalType": "address",
          "name": "",
          "type": "address"
        }
      ],
      "stateMutability": "view",
      "type": "function"
    },
    {
      "inputs": [
        {
          "internalType": "address",
          "name": "owner",
          "type": "address"
        },
        {
          "internalType": "address",
          "name": "operator",
          "type": "address"
        }
      ],
      "name": "isApprovedForAll",
      "outputs": [
        {
          "internalType": "bool",
          "name": "",
          "type": "bool"
        }
      ],
      "stateMutability": "view",
      "type": "function"
    },
    {
      "inputs": [
        {
          "internalType": "string",
          "name": "uri",
          "type": "string"
        }
      ],
      "name": "mint",
      "outputs": [],
      "stateMutability": "nonpayable",
      "type": "function"
    },
    {
      "inputs": [],
      "name": "name",
      "outputs": [
        {
          "internalType": "string",
          "name": "",
          "type": "string"
        }
      ],
      "stateMutability": "view",
      "type": "function"
    },
    {
      "inputs": [],
      "name": "owner",
      "outputs": [
        {
          "internalType": "address",
          "name": "",
          "type": "address"
        }
      ],
      "stateMutability": "view",
      "type": "function"
    },
    {
      "inputs": [
        {
          "internalType": "uint256",
          "name": "tokenId",
          "type": "uint256"
        }
      ],
      "name": "ownerOf",
      "outputs": [
        {
          "internalType": "address",
          "name": "",
          "type": "address"
        }
      ],
      "stateMutability": "view",
      "type": "function"
    },
    {
      "inputs": [],
      "name": "renounceOwnership",
      "outputs": [],
      "stateMutability": "nonpayable",
      "type": "function"
    },
    {
      "inputs": [
        {
          "internalType": "uint256",
          "name": "_tokenId",
          "type": "uint256"
        },
        {
          "internalType": "uint256",
          "name": "_salePrice",
          "type": "uint256"
        }
      ],
      "name": "royaltyInfo",
      "outputs": [
        {
          "internalType": "address",
          "name": "",
          "type": "address"
        },
        {
          "internalType": "uint256",
          "name": "",
          "type": "uint256"
        }
      ],
      "stateMutability": "view",
      "type": "function"
    },
    {
      "inputs": [
        {
          "internalType": "address",
          "name": "to",
          "type": "address"
        },
        {
          "internalType": "string",
          "name": "uri",
          "type": "string"
        }
      ],
      "name": "safeMint",
      "outputs": [],
      "stateMutability": "nonpayable",
      "type": "function"
    },
    {
      "inputs": [
        {
          "internalType": "address",
          "name": "from",
          "type": "address"
        },
        {
          "internalType": "address",
          "name": "to",
          "type": "address"
        },
        {
          "internalType": "uint256",
          "name": "tokenId",
          "type": "uint256"
        }
      ],
      "name": "safeTransferFrom",
      "outputs": [],
      "stateMutability": "nonpayable",
      "type": "function"
    },
    {
      "inputs": [
        {
          "internalType": "address",
          "name": "from",
          "type": "address"
        },
        {
          "internalType": "address",
          "name": "to",
          "type": "address"
        },
        {
          "internalType": "uint256",
          "name": "tokenId",
          "type": "uint256"
        },
        {
          "internalType": "bytes",
          "name": "_data",
          "type": "bytes"
        }
      ],
      "name": "safeTransferFrom",
      "outputs": [],
      "stateMutability": "nonpayable",
      "type": "function"
    },
    {
      "inputs": [
        {
          "internalType": "address",
          "name": "operator",
          "type": "address"
        },
        {
          "internalType": "bool",
          "name": "approved",
          "type": "bool"
        }
      ],
      "name": "setApprovalForAll",
      "outputs": [],
      "stateMutability": "nonpayable",
      "type": "function"
    },
    {
      "inputs": [
        {
          "internalType": "address",
          "name": "receiver",
          "type": "address"
        },
        {
          "internalType": "uint96",
          "name": "feeNumerator",
          "type": "uint96"
        }
      ],
      "name": "setDefaultRoyalty",
      "outputs": [],
      "stateMutability": "nonpayable",
      "type": "function"
    },
    {
      "inputs": [
        {
          "internalType": "uint256",
          "name": "tokenId",
          "type": "uint256"
        },
        {
          "internalType": "address",
          "name": "receiver",
          "type": "address"
        },
        {
          "internalType": "uint96",
          "name": "feeNumerator",
          "type": "uint96"
        }
      ],
      "name": "setTokenRoyalty",
      "outputs": [],
      "stateMutability": "nonpayable",
      "type": "function"
    },
    {
      "inputs": [
        {
          "internalType": "bytes4",
          "name": "interfaceId",
          "type": "bytes4"
        }
      ],
      "name": "supportsInterface",
      "outputs": [
        {
          "internalType": "bool",
          "name": "",
          "type": "bool"
        }
      ],
      "stateMutability": "view",
      "type": "function"
    },
    {
      "inputs": [],
      "name": "symbol",
      "outputs": [
        {
          "internalType": "string",
          "name": "",
          "type": "string"
        }
      ],
      "stateMutability": "view",
      "type": "function"
    },
    {
      "inputs": [
        {
          "internalType": "uint256",
          "name": "index",
          "type": "uint256"
        }
      ],
      "name": "tokenByIndex",
      "outputs": [
        {
          "internalType": "uint256",
          "name": "",
          "type": "uint256"
        }
      ],
      "stateMutability": "view",
      "type": "function"
    },
    {
      "inputs": [
        {
          "internalType": "address",
          "name": "owner",
          "type": "address"
        },
        {
          "internalType": "uint256",
          "name": "index",
          "type": "uint256"
        }
      ],
      "name": "tokenOfOwnerByIndex",
      "outputs": [
        {
          "internalType": "uint256",
          "name": "",
          "type": "uint256"
        }
      ],
      "stateMutability": "view",
      "type": "function"
    },
    {
      "inputs": [
        {
          "internalType": "uint256",
          "name": "tokenId",
          "type": "uint256"
        }
      ],
      "name": "tokenURI",
      "outputs": [
        {
          "internalType": "string",
          "name": "",
          "type": "string"
        }
      ],
      "stateMutability": "view",
      "type": "function"
    },
    {
      "inputs": [],
      "name": "totalSupply",
      "outputs": [
        {
          "internalType": "uint256",
          "name": "",
          "type": "uint256"
        }
      ],
      "stateMutability": "view",
      "type": "function"
    },
    {
      "inputs": [
        {
          "internalType": "address",
          "name": "from",
          "type": "address"
        },
        {
          "internalType": "address",
          "name": "to",
          "type": "address"
        },
        {
          "internalType": "uint256",
          "name": "tokenId",
          "type": "uint256"
        }
      ],
      "name": "transferFrom",
      "outputs": [],
      "stateMutability": "nonpayable",
      "type": "function"
    },
    {
      "inputs": [
        {
          "internalType": "address",
          "name": "newOwner",
          "type": "address"
        }
      ],
      "name": "transferOwnership",
      "outputs": [],
      "stateMutability": "nonpayable",
      "type": "function"
    }
  ],
  "bytecode": "0x60806040523480156200001157600080fd5b50604080518082018252600781526626bcaa37b5b2b760c91b6020808301918252835180850190945260038452624d544b60e81b9084015281519192916200005c91600291620000eb565b50805162000072906003906020840190620000eb565b5050506200008f620000896200009560201b60201c565b62000099565b620001ce565b3390565b600d80546001600160a01b038381166001600160a01b0319831681179093556040519116919082907f8be0079c531659141344cd1fd0a4f28419497f9722a3daafe3b4186f6b6457e090600090a35050565b828054620000f99062000191565b90600052602060002090601f0160209004810192826200011d576000855562000168565b82601f106200013857805160ff191683800117855562000168565b8280016001018555821562000168579182015b82811115620001685782518255916020019190600101906200014b565b50620001769291506200017a565b5090565b5b808211156200017657600081556001016200017b565b600181811c90821680620001a657607f821691505b60208210811415620001c857634e487b7160e01b600052602260045260246000fd5b50919050565b61234780620001de6000396000f3fe608060405234801561001057600080fd5b506004361061018e5760003560e01c80635944c753116100de578063a22cb46511610097578063d204c45e11610071578063d204c45e14610398578063d85d3d27146103ab578063e985e9c5146103be578063f2fde38b146103fa57600080fd5b8063a22cb4651461035f578063b88d4fde14610372578063c87b56dd1461038557600080fd5b80635944c753146103055780636352211e1461031857806370a082311461032b578063715018a61461033e5780638da5cb5b1461034657806395d89b411461035757600080fd5b806323b872dd1161014b57806342842e0e1161012557806342842e0e1461028d5780634816edf4146102a05780634f6ccce7146102c9578063589a1743146102dc57600080fd5b806323b872dd146102355780632a55205a146102485780632f745c591461027a57600080fd5b806301ffc9a71461019357806304634d8d146101bb57806306fdde03146101d0578063081812fc146101e5578063095ea7b31461021057806318160ddd14610223575b600080fd5b6101a66101a1366004611f15565b61040d565b60405190151581526020015b60405180910390f35b6101ce6101c9366004611eec565b61041e565b005b6101d861045f565b6040516101b2919061208c565b6101f86101f3366004611f80565b6104f1565b6040516001600160a01b0390911681526020016101b2565b6101ce61021e366004611ec3565b610579565b600a545b6040519081526020016101b2565b6101ce610243366004611d89565b61068f565b61025b610256366004611fd3565b6106c0565b604080516001600160a01b0390931683526020830191909152016101b2565b610227610288366004611ec3565b61076c565b6101ce61029b366004611d89565b610802565b6101f86102ae366004611f80565b600f602052600090815260409020546001600160a01b031681565b6102276102d7366004611f80565b61081d565b6101f86102ea366004611f80565b6000908152600f60205260409020546001600160a01b031690565b6101ce610313366004611f98565b6108be565b6101f8610326366004611f80565b61093b565b610227610339366004611d3d565b6109b2565b6101ce610a39565b600d546001600160a01b03166101f8565b6101d8610a6f565b6101ce61036d366004611e3d565b610a7e565b6101ce610380366004611dc4565b610a89565b6101d8610393366004611f80565b610ac1565b6101ce6103a6366004611e77565b610acc565b6101ce6103b9366004611f4d565b610b55565b6101a66103cc366004611d57565b6001600160a01b03918216600090815260076020908152604080832093909416825291909152205460ff1690565b6101ce610408366004611d3d565b610ba5565b600061041882610c40565b92915050565b600d546001600160a01b031633146104515760405162461bcd60e51b8152600401610448906120f1565b60405180910390fd5b61045b8282610c4b565b5050565b60606002805461046e9061224f565b80601f016020809104026020016040519081016040528092919081815260200182805461049a9061224f565b80156104e75780601f106104bc576101008083540402835291602001916104e7565b820191906000526020600020905b8154815290600101906020018083116104ca57829003601f168201915b5050505050905090565b60006104fc82610d05565b61055d5760405162461bcd60e51b815260206004820152602c60248201527f4552433732313a20617070726f76656420717565727920666f72206e6f6e657860448201526b34b9ba32b73a103a37b5b2b760a11b6064820152608401610448565b506000908152600660205260409020546001600160a01b031690565b60006105848261093b565b9050806001600160a01b0316836001600160a01b031614156105f25760405162461bcd60e51b815260206004820152602160248201527f4552433732313a20617070726f76616c20746f2063757272656e74206f776e656044820152603960f91b6064820152608401610448565b336001600160a01b038216148061060e575061060e81336103cc565b6106805760405162461bcd60e51b815260206004820152603860248201527f4552433732313a20617070726f76652063616c6c6572206973206e6f74206f7760448201527f6e6572206e6f7220617070726f76656420666f7220616c6c00000000000000006064820152608401610448565b61068a8383610d22565b505050565b6106993382610d90565b6106b55760405162461bcd60e51b815260040161044890612126565b61068a838383610e7a565b60008281526001602090815260408083208151808301909252546001600160a01b038116808352600160a01b9091046001600160601b03169282019290925282916107355750604080518082019091526000546001600160a01b0381168252600160a01b90046001600160601b031660208201525b602081015160009061271090610754906001600160601b0316876121ed565b61075e91906121d9565b915196919550909350505050565b6000610777836109b2565b82106107d95760405162461bcd60e51b815260206004820152602b60248201527f455243373231456e756d657261626c653a206f776e657220696e646578206f7560448201526a74206f6620626f756e647360a81b6064820152608401610448565b506001600160a01b03919091166000908152600860209081526040808320938352929052205490565b61068a83838360405180602001604052806000815250610a89565b6000610828600a5490565b821061088b5760405162461bcd60e51b815260206004820152602c60248201527f455243373231456e756d657261626c653a20676c6f62616c20696e646578206f60448201526b7574206f6620626f756e647360a01b6064820152608401610448565b600a82815481106108ac57634e487b7160e01b600052603260045260246000fd5b90600052602060002001549050919050565b6000838152600f60205260409020546001600160a01b031633146109305760405162461bcd60e51b815260206004820152602360248201527f4f6e6c792063726561746f722063616e2073657420746f6b656e20726f79616c6044820152623a3c9760e91b6064820152608401610448565b61068a838383611021565b6000818152600460205260408120546001600160a01b0316806104185760405162461bcd60e51b815260206004820152602960248201527f4552433732313a206f776e657220717565727920666f72206e6f6e657869737460448201526832b73a103a37b5b2b760b91b6064820152608401610448565b60006001600160a01b038216610a1d5760405162461bcd60e51b815260206004820152602a60248201527f4552433732313a2062616c616e636520717565727920666f7220746865207a65604482015269726f206164647265737360b01b6064820152608401610448565b506001600160a01b031660009081526005602052604090205490565b600d546001600160a01b03163314610a635760405162461bcd60e51b8152600401610448906120f1565b610a6d60006110ec565b565b60606003805461046e9061224f565b61045b33838361113e565b610a933383610d90565b610aaf5760405162461bcd60e51b815260040161044890612126565b610abb8484848461120d565b50505050565b606061041882611240565b600d546001600160a01b03163314610af65760405162461bcd60e51b8152600401610448906120f1565b6000610b01600e5490565b9050610b11600e80546001019055565b610b1b83826113af565b610b2581836113c9565b6000908152600f6020526040902080546001600160a01b0319166001600160a01b03939093169290921790915550565b6000610b60600e5490565b9050610b70600e80546001019055565b610b7a33826113af565b610b8481836113c9565b6000908152600f6020526040902080546001600160a01b0319163317905550565b600d546001600160a01b03163314610bcf5760405162461bcd60e51b8152600401610448906120f1565b6001600160a01b038116610c345760405162461bcd60e51b815260206004820152602660248201527f4f776e61626c653a206e6577206f776e657220697320746865207a65726f206160448201526564647265737360d01b6064820152608401610448565b610c3d816110ec565b50565b600061041882611454565b6127106001600160601b0382161115610c765760405162461bcd60e51b815260040161044890612177565b6001600160a01b038216610ccc5760405162461bcd60e51b815260206004820152601960248201527f455243323938313a20696e76616c6964207265636569766572000000000000006044820152606401610448565b604080518082019091526001600160a01b039092168083526001600160601b039091166020909201829052600160a01b90910217600055565b6000908152600460205260409020546001600160a01b0316151590565b600081815260066020526040902080546001600160a01b0319166001600160a01b0384169081179091558190610d578261093b565b6001600160a01b03167f8c5be1e5ebec7d5bd14f71427d1e84f3dd0314c0f7b2291e5b200ac8c7c3b92560405160405180910390a45050565b6000610d9b82610d05565b610dfc5760405162461bcd60e51b815260206004820152602c60248201527f4552433732313a206f70657261746f7220717565727920666f72206e6f6e657860448201526b34b9ba32b73a103a37b5b2b760a11b6064820152608401610448565b6000610e078361093b565b9050806001600160a01b0316846001600160a01b03161480610e4e57506001600160a01b0380821660009081526007602090815260408083209388168352929052205460ff165b80610e725750836001600160a01b0316610e67846104f1565b6001600160a01b0316145b949350505050565b826001600160a01b0316610e8d8261093b565b6001600160a01b031614610ef15760405162461bcd60e51b815260206004820152602560248201527f4552433732313a207472616e736665722066726f6d20696e636f72726563742060448201526437bbb732b960d91b6064820152608401610448565b6001600160a01b038216610f535760405162461bcd60e51b8152602060048201526024808201527f4552433732313a207472616e7366657220746f20746865207a65726f206164646044820152637265737360e01b6064820152608401610448565b610f5e838383611479565b610f69600082610d22565b6001600160a01b0383166000908152600560205260408120805460019290610f9290849061220c565b90915550506001600160a01b0382166000908152600560205260408120805460019290610fc09084906121c1565b909155505060008181526004602052604080822080546001600160a01b0319166001600160a01b0386811691821790925591518493918716917fddf252ad1be2c89b69c2b068fc378daa952ba7f163c4a11628f55a4df523b3ef91a4505050565b6127106001600160601b038216111561104c5760405162461bcd60e51b815260040161044890612177565b6001600160a01b0382166110a25760405162461bcd60e51b815260206004820152601b60248201527f455243323938313a20496e76616c696420706172616d657465727300000000006044820152606401610448565b6040805180820182526001600160a01b0393841681526001600160601b0392831660208083019182526000968752600190529190942093519051909116600160a01b029116179055565b600d80546001600160a01b038381166001600160a01b0319831681179093556040519116919082907f8be0079c531659141344cd1fd0a4f28419497f9722a3daafe3b4186f6b6457e090600090a35050565b816001600160a01b0316836001600160a01b031614156111a05760405162461bcd60e51b815260206004820152601960248201527f4552433732313a20617070726f766520746f2063616c6c6572000000000000006044820152606401610448565b6001600160a01b03838116600081815260076020908152604080832094871680845294825291829020805460ff191686151590811790915591519182527f17307eab39ab6107e8899845ad3d59bd9653f200f220920489ca2b5937696c31910160405180910390a3505050565b611218848484610e7a565b61122484848484611484565b610abb5760405162461bcd60e51b81526004016104489061209f565b606061124b82610d05565b6112b15760405162461bcd60e51b815260206004820152603160248201527f45524337323155524953746f726167653a2055524920717565727920666f72206044820152703737b732bc34b9ba32b73a103a37b5b2b760791b6064820152608401610448565b6000828152600c6020526040812080546112ca9061224f565b80601f01602080910402602001604051908101604052809291908181526020018280546112f69061224f565b80156113435780601f1061131857610100808354040283529160200191611343565b820191906000526020600020905b81548152906001019060200180831161132657829003601f168201915b50505050509050600061136160408051602081019091526000815290565b9050805160001415611374575092915050565b8151156113a657808260405160200161138e929190612020565b60405160208183030381529060405292505050919050565b610e7284611591565b61045b828260405180602001604052806000815250611669565b6113d282610d05565b6114355760405162461bcd60e51b815260206004820152602e60248201527f45524337323155524953746f726167653a2055524920736574206f66206e6f6e60448201526d32bc34b9ba32b73a103a37b5b2b760911b6064820152608401610448565b6000828152600c60209081526040909120825161068a92840190611bdc565b60006001600160e01b0319821663780e9d6360e01b148061041857506104188261169c565b61068a8383836116dc565b60006001600160a01b0384163b1561158657604051630a85bd0160e11b81526001600160a01b0385169063150b7a02906114c890339089908890889060040161204f565b602060405180830381600087803b1580156114e257600080fd5b505af1925050508015611512575060408051601f3d908101601f1916820190925261150f91810190611f31565b60015b61156c573d808015611540576040519150601f19603f3d011682016040523d82523d6000602084013e611545565b606091505b5080516115645760405162461bcd60e51b81526004016104489061209f565b805181602001fd5b6001600160e01b031916630a85bd0160e11b149050610e72565b506001949350505050565b606061159c82610d05565b6116005760405162461bcd60e51b815260206004820152602f60248201527f4552433732314d657461646174613a2055524920717565727920666f72206e6f60448201526e3732bc34b9ba32b73a103a37b5b2b760891b6064820152608401610448565b600061161760408051602081019091526000815290565b905060008151116116375760405180602001604052806000815250611662565b8061164184611794565b604051602001611652929190612020565b6040516020818303038152906040525b9392505050565b61167383836118ae565b6116806000848484611484565b61068a5760405162461bcd60e51b81526004016104489061209f565b60006001600160e01b031982166380ac58cd60e01b14806116cd57506001600160e01b03198216635b5e139f60e01b145b806104185750610418826119ed565b6001600160a01b0383166117375761173281600a80546000838152600b60205260408120829055600182018355919091527fc65a7bb8d6351c1cf70c95a316cc6a92839c986682d98bc35f958f4883f9d2a80155565b61175a565b816001600160a01b0316836001600160a01b03161461175a5761175a8382611a22565b6001600160a01b0382166117715761068a81611abf565b826001600160a01b0316826001600160a01b03161461068a5761068a8282611b98565b6060816117b85750506040805180820190915260018152600360fc1b602082015290565b8160005b81156117e257806117cc8161228a565b91506117db9050600a836121d9565b91506117bc565b60008167ffffffffffffffff81111561180b57634e487b7160e01b600052604160045260246000fd5b6040519080825280601f01601f191660200182016040528015611835576020820181803683370190505b5090505b8415610e725761184a60018361220c565b9150611857600a866122a5565b6118629060306121c1565b60f81b81838151811061188557634e487b7160e01b600052603260045260246000fd5b60200101906001600160f81b031916908160001a9053506118a7600a866121d9565b9450611839565b6001600160a01b0382166119045760405162461bcd60e51b815260206004820181905260248201527f4552433732313a206d696e7420746f20746865207a65726f20616464726573736044820152606401610448565b61190d81610d05565b1561195a5760405162461bcd60e51b815260206004820152601c60248201527f4552433732313a20746f6b656e20616c7265616479206d696e746564000000006044820152606401610448565b61196660008383611479565b6001600160a01b038216600090815260056020526040812080546001929061198f9084906121c1565b909155505060008181526004602052604080822080546001600160a01b0319166001600160a01b03861690811790915590518392907fddf252ad1be2c89b69c2b068fc378daa952ba7f163c4a11628f55a4df523b3ef908290a45050565b60006001600160e01b0319821663152a902d60e11b148061041857506301ffc9a760e01b6001600160e01b0319831614610418565b60006001611a2f846109b2565b611a39919061220c565b600083815260096020526040902054909150808214611a8c576001600160a01b03841660009081526008602090815260408083208584528252808320548484528184208190558352600990915290208190555b5060009182526009602090815260408084208490556001600160a01b039094168352600881528383209183525290812055565b600a54600090611ad19060019061220c565b6000838152600b6020526040812054600a8054939450909284908110611b0757634e487b7160e01b600052603260045260246000fd5b9060005260206000200154905080600a8381548110611b3657634e487b7160e01b600052603260045260246000fd5b6000918252602080832090910192909255828152600b9091526040808220849055858252812055600a805480611b7c57634e487b7160e01b600052603160045260246000fd5b6001900381819060005260206000200160009055905550505050565b6000611ba3836109b2565b6001600160a01b039093166000908152600860209081526040808320868452825280832085905593825260099052919091209190915550565b828054611be89061224f565b90600052602060002090601f016020900481019282611c0a5760008555611c50565b82601f10611c2357805160ff1916838001178555611c50565b82800160010185558215611c50579182015b82811115611c50578251825591602001919060010190611c35565b50611c5c929150611c60565b5090565b5b80821115611c5c5760008155600101611c61565b600067ffffffffffffffff80841115611c9057611c906122e5565b604051601f8501601f19908116603f01168101908282118183101715611cb857611cb86122e5565b81604052809350858152868686011115611cd157600080fd5b858560208301376000602087830101525050509392505050565b80356001600160a01b0381168114611d0257600080fd5b919050565b600082601f830112611d17578081fd5b61166283833560208501611c75565b80356001600160601b0381168114611d0257600080fd5b600060208284031215611d4e578081fd5b61166282611ceb565b60008060408385031215611d69578081fd5b611d7283611ceb565b9150611d8060208401611ceb565b90509250929050565b600080600060608486031215611d9d578081fd5b611da684611ceb565b9250611db460208501611ceb565b9150604084013590509250925092565b60008060008060808587031215611dd9578081fd5b611de285611ceb565b9350611df060208601611ceb565b925060408501359150606085013567ffffffffffffffff811115611e12578182fd5b8501601f81018713611e22578182fd5b611e3187823560208401611c75565b91505092959194509250565b60008060408385031215611e4f578182fd5b611e5883611ceb565b915060208301358015158114611e6c578182fd5b809150509250929050565b60008060408385031215611e89578182fd5b611e9283611ceb565b9150602083013567ffffffffffffffff811115611ead578182fd5b611eb985828601611d07565b9150509250929050565b60008060408385031215611ed5578182fd5b611ede83611ceb565b946020939093013593505050565b60008060408385031215611efe578182fd5b611f0783611ceb565b9150611d8060208401611d26565b600060208284031215611f26578081fd5b8135611662816122fb565b600060208284031215611f42578081fd5b8151611662816122fb565b600060208284031215611f5e578081fd5b813567ffffffffffffffff811115611f74578182fd5b610e7284828501611d07565b600060208284031215611f91578081fd5b5035919050565b600080600060608486031215611fac578283fd5b83359250611fbc60208501611ceb565b9150611fca60408501611d26565b90509250925092565b60008060408385031215611fe5578182fd5b50508035926020909101359150565b6000815180845261200c816020860160208601612223565b601f01601f19169290920160200192915050565b60008351612032818460208801612223565b835190830190612046818360208801612223565b01949350505050565b6001600160a01b038581168252841660208201526040810183905260806060820181905260009061208290830184611ff4565b9695505050505050565b6020815260006116626020830184611ff4565b60208082526032908201527f4552433732313a207472616e7366657220746f206e6f6e20455243373231526560408201527131b2b4bb32b91034b6b83632b6b2b73a32b960711b606082015260800190565b6020808252818101527f4f776e61626c653a2063616c6c6572206973206e6f7420746865206f776e6572604082015260600190565b60208082526031908201527f4552433732313a207472616e736665722063616c6c6572206973206e6f74206f6040820152701ddb995c881b9bdc88185c1c1c9bdd9959607a1b606082015260800190565b6020808252602a908201527f455243323938313a20726f79616c7479206665652077696c6c206578636565646040820152692073616c65507269636560b01b606082015260800190565b600082198211156121d4576121d46122b9565b500190565b6000826121e8576121e86122cf565b500490565b6000816000190483118215151615612207576122076122b9565b500290565b60008282101561221e5761221e6122b9565b500390565b60005b8381101561223e578181015183820152602001612226565b83811115610abb5750506000910152565b600181811c9082168061226357607f821691505b6020821081141561228457634e487b7160e01b600052602260045260246000fd5b50919050565b600060001982141561229e5761229e6122b9565b5060010190565b6000826122b4576122b46122cf565b500690565b634e487b7160e01b600052601160045260246000fd5b634e487b7160e01b600052601260045260246000fd5b634e487b7160e01b600052604160045260246000fd5b6001600160e01b031981168114610c3d57600080fdfea2646970667358221220cfbb1d4546874f8d9ef5812261de88242b0335c3a75c4d59ab8874f2ebe17a7264736f6c63430008040033",
  "linkReferences": {},
  "deployedLinkReferences": {}
}