{
  "_format": "hh-sol-artifact-1",
  "contractName": "MarketPlace",
  "sourceName": "contracts/MarketPlace.sol",
  "abi": [
    {
      "inputs": [
        {
          "internalType": "uint256",
          "name": "_index",
          "type": "uint256"
        }
      ],
      "name": "buyNFT",
      "outputs": [],
      "stateMutability": "payable",
      "type": "function"
    },
    {
      "inputs": [],
      "name": "getItemsList",
      "outputs": [
        {
          "components": [
            {
              "internalType": "uint256",
              "name": "index",
              "type": "uint256"
            },
            {
              "internalType": "uint256",
              "name": "tokenID",
              "type": "uint256"
            },
            {
              "internalType": "uint256",
              "name": "price",
              "type": "uint256"
            },
            {
              "internalType": "address",
              "name": "tokenAddress",
              "type": "address"
            },
            {
              "internalType": "address payable",
              "name": "owner",
              "type": "address"
            },
            {
              "internalType": "string",
              "name": "url",
              "type": "string"
            }
          ],
          "internalType": "struct MarketPlace.Item[]",
          "name": "",
          "type": "tuple[]"
        }
      ],
      "stateMutability": "view",
      "type": "function"
    },
    {
      "inputs": [
        {
          "internalType": "uint256",
          "name": "",
          "type": "uint256"
        }
      ],
      "name": "items",
      "outputs": [
        {
          "internalType": "uint256",
          "name": "index",
          "type": "uint256"
        },
        {
          "internalType": "uint256",
          "name": "tokenID",
          "type": "uint256"
        },
        {
          "internalType": "uint256",
          "name": "price",
          "type": "uint256"
        },
        {
          "internalType": "address",
          "name": "tokenAddress",
          "type": "address"
        },
        {
          "internalType": "address payable",
          "name": "owner",
          "type": "address"
        },
        {
          "internalType": "string",
          "name": "url",
          "type": "string"
        }
      ],
      "stateMutability": "view",
      "type": "function"
    },
    {
      "inputs": [
        {
          "internalType": "uint256",
          "name": "_tokenID",
          "type": "uint256"
        },
        {
          "internalType": "uint256",
          "name": "_price",
          "type": "uint256"
        },
        {
          "internalType": "address",
          "name": "_tokenAddress",
          "type": "address"
        },
        {
          "internalType": "string",
          "name": "_url",
          "type": "string"
        }
      ],
      "name": "listForSale",
      "outputs": [],
      "stateMutability": "nonpayable",
      "type": "function"
    },
    {
      "inputs": [
        {
          "internalType": "uint256",
          "name": "",
          "type": "uint256"
        }
      ],
      "name": "listedTokens",
      "outputs": [
        {
          "internalType": "bool",
          "name": "",
          "type": "bool"
        }
      ],
      "stateMutability": "view",
      "type": "function"
    },
    {
      "inputs": [],
      "name": "totalItems",
      "outputs": [
        {
          "internalType": "uint256",
          "name": "",
          "type": "uint256"
        }
      ],
      "stateMutability": "view",
      "type": "function"
    }
  ],
  "bytecode": "0x608060405234801561001057600080fd5b506111b7806100206000396000f3fe6080604052600436106100555760003560e01c80632799276d1461005a578063295f54991461007d57806351ed82881461009f5780635a9d1ac3146100b25780638ff152a8146100f2578063bfb231d214610114575b600080fd5b34801561006657600080fd5b506000546040519081526020015b60405180910390f35b34801561008957600080fd5b5061009d610098366004610ea5565b610146565b005b61009d6100ad366004610e8d565b6105b9565b3480156100be57600080fd5b506100e26100cd366004610e8d565b60016020526000908152604090205460ff1681565b6040519015158152602001610074565b3480156100fe57600080fd5b50610107610ab8565b6040516100749190610fc0565b34801561012057600080fd5b5061013461012f366004610e8d565b610beb565b6040516100749695949392919061106f565b6000546040516331a9108f60e11b81526004810186905283906001600160a01b03821690636352211e9060240160206040518083038186803b15801561018b57600080fd5b505afa15801561019f573d6000803e3d6000fd5b505050506040513d601f19601f820116820180604052508101906101c39190610e1d565b6001600160a01b0316336001600160a01b03161461023e5760405162461bcd60e51b815260206004820152602d60248201527f4d61726b6574506c6163653a2053656e646572206973206e6f7420746865206f60448201526c3bb732b91037b3103a37b5b2b760991b60648201526084015b60405180910390fd5b60008681526001602052604090205460ff16156102a95760405162461bcd60e51b8152602060048201526024808201527f4d61726b6574506c6163653a20546f6b656e20697320616c7265616479206c696044820152631cdd195960e21b6064820152608401610235565b60405163020604bf60e21b8152600481018790526001600160a01b0382169063081812fc9060240160206040518083038186803b1580156102e957600080fd5b505afa1580156102fd573d6000803e3d6000fd5b505050506040513d601f19601f820116820180604052508101906103219190610e1d565b6001600160a01b0316306001600160a01b031614806103b8575060405163e985e9c560e01b81523360048201523060248201526001600160a01b0382169063e985e9c59060440160206040518083038186803b15801561038057600080fd5b505afa158015610394573d6000803e3d6000fd5b505050506040513d601f19601f820116820180604052508101906103b89190610e6d565b61042c576040805162461bcd60e51b81526020600482015260248101919091527f4d61726b6574506c6163653a204e46544d61726b6574506c616365206973206e60448201527f6f742070726f766964656420617070726f76616c20746f207472616e736665726064820152608401610235565b6040805160c08101825283815260208082018981529282018881526001600160a01b0380891660608501908152336080860190815260a086018a815260008054600181018255908052875160069091027f290decd9548b62a8d60345a988386fc84ba6bc95484008f6362f93160ef3e563810191825598517f290decd9548b62a8d60345a988386fc84ba6bc95484008f6362f93160ef3e5648a015594517f290decd9548b62a8d60345a988386fc84ba6bc95484008f6362f93160ef3e56589015591517f290decd9548b62a8d60345a988386fc84ba6bc95484008f6362f93160ef3e566880180549185166001600160a01b031992831617905590517f290decd9548b62a8d60345a988386fc84ba6bc95484008f6362f93160ef3e567880180549190941691161790915551805193949193610592937f290decd9548b62a8d60345a988386fc84ba6bc95484008f6362f93160ef3e568909301929190910190610ccc565b50505060009586525050600160208190526040909420805460ff1916909417909355505050565b600081815481106105da57634e487b7160e01b600052603260045260246000fd5b90600052602060002090600602016002015434146106545760405162461bcd60e51b815260206004820152603160248201527f4d61726b6574506c6163653a20506c65617365207061792074686520616d6f756044820152706e7420657175616c20746f20707269636560781b6064820152608401610235565b600080828154811061067657634e487b7160e01b600052603260045260246000fd5b6000918252602082206003600690920201015481546001600160a01b03909116925082916342842e0e91859081106106be57634e487b7160e01b600052603260045260246000fd5b6000918252602082206004600690920201015481546001600160a01b03909116913391879081106106ff57634e487b7160e01b600052603260045260246000fd5b60009182526020909120600160069092020101546040516001600160e01b031960e086901b1681526001600160a01b0393841660048201529290911660248301526044820152606401600060405180830381600087803b15801561076257600080fd5b505af1158015610776573d6000803e3d6000fd5b505060405163152a902d60e11b815260048101859052346024820152600092508291506001600160a01b03841690632a55205a90604401604080518083038186803b1580156107c457600080fd5b505afa1580156107d8573d6000803e3d6000fd5b505050506040513d601f19601f820116820180604052508101906107fc9190610e40565b909250905034811580159061081957506001600160a01b03831615155b156108635761082882346110d3565b6040519091506001600160a01b0384169083156108fc029084906000818181858888f19350505050158015610861573d6000803e3d6000fd5b505b6000858154811061088457634e487b7160e01b600052603260045260246000fd5b600091825260208220600460069092020101546040516001600160a01b039091169183156108fc02918491818181858888f193505050501580156108cc573d6000803e3d6000fd5b506000600160008088815481106108f357634e487b7160e01b600052603260045260246000fd5b906000526020600020906006020160010154815260200190815260200160002060006101000a81548160ff02191690831515021790555060008590505b60005461093f906001906110d3565b811015610a395760006109538260016110bb565b8154811061097157634e487b7160e01b600052603260045260246000fd5b9060005260206000209060060201600082815481106109a057634e487b7160e01b600052603260045260246000fd5b600091825260209091208254600690920201908155600180830154908201556002808301549082015560038083015490820180546001600160a01b039283166001600160a01b03199182161790915560048085015490840180549190931691161790556005808301805491830191610a17906110ea565b610a22929190610d50565b509050508080610a3190611125565b915050610930565b506000805480610a5957634e487b7160e01b600052603160045260246000fd5b60008281526020812060066000199093019283020181815560018101829055600281018290556003810180546001600160a01b0319908116909155600482018054909116905590610aad6005830182610dcb565b505090555050505050565b60606000805480602002602001604051908101604052809291908181526020016000905b82821015610be25760008481526020908190206040805160c081018252600686029092018054835260018101549383019390935260028301549082015260038201546001600160a01b039081166060830152600483015416608082015260058201805491929160a084019190610b51906110ea565b80601f0160208091040260200160405190810160405280929190818152602001828054610b7d906110ea565b8015610bca5780601f10610b9f57610100808354040283529160200191610bca565b820191906000526020600020905b815481529060010190602001808311610bad57829003601f168201915b50505050508152505081526020019060010190610adc565b50505050905090565b60008181548110610bfb57600080fd5b6000918252602090912060069091020180546001820154600283015460038401546004850154600586018054959750939592946001600160a01b0392831694919092169291610c49906110ea565b80601f0160208091040260200160405190810160405280929190818152602001828054610c75906110ea565b8015610cc25780601f10610c9757610100808354040283529160200191610cc2565b820191906000526020600020905b815481529060010190602001808311610ca557829003601f168201915b5050505050905086565b828054610cd8906110ea565b90600052602060002090601f016020900481019282610cfa5760008555610d40565b82601f10610d1357805160ff1916838001178555610d40565b82800160010185558215610d40579182015b82811115610d40578251825591602001919060010190610d25565b50610d4c929150610e08565b5090565b828054610d5c906110ea565b90600052602060002090601f016020900481019282610d7e5760008555610d40565b82601f10610d8f5780548555610d40565b82800160010185558215610d4057600052602060002091601f016020900482015b82811115610d40578254825591600101919060010190610db0565b508054610dd7906110ea565b6000825580601f10610de7575050565b601f016020900490600052602060002090810190610e059190610e08565b50565b5b80821115610d4c5760008155600101610e09565b600060208284031215610e2e578081fd5b8151610e398161116c565b9392505050565b60008060408385031215610e52578081fd5b8251610e5d8161116c565b6020939093015192949293505050565b600060208284031215610e7e578081fd5b81518015158114610e39578182fd5b600060208284031215610e9e578081fd5b5035919050565b60008060008060808587031215610eba578182fd5b84359350602085013592506040850135610ed38161116c565b9150606085013567ffffffffffffffff80821115610eef578283fd5b818701915087601f830112610f02578283fd5b813581811115610f1457610f14611156565b604051601f8201601f19908116603f01168101908382118183101715610f3c57610f3c611156565b816040528281528a6020848701011115610f54578586fd5b82602086016020830137918201602001949094529598949750929550505050565b60008151808452815b81811015610f9a57602081850181015186830182015201610f7e565b81811115610fab5782602083870101525b50601f01601f19169290920160200192915050565b60006020808301818452808551808352604092508286019150828160051b870101848801865b8381101561106157888303603f19018552815180518452878101518885015286810151878501526060808201516001600160a01b03908116918601919091526080808301519091169085015260a09081015160c09185018290529061104d81860183610f75565b968901969450505090860190600101610fe6565b509098975050505050505050565b86815260208101869052604081018590526001600160a01b0384811660608301528316608082015260c060a082018190526000906110af90830184610f75565b98975050505050505050565b600082198211156110ce576110ce611140565b500190565b6000828210156110e5576110e5611140565b500390565b600181811c908216806110fe57607f821691505b6020821081141561111f57634e487b7160e01b600052602260045260246000fd5b50919050565b600060001982141561113957611139611140565b5060010190565b634e487b7160e01b600052601160045260246000fd5b634e487b7160e01b600052604160045260246000fd5b6001600160a01b0381168114610e0557600080fdfea264697066735822122066c826fb90a65c45b4eb9db709c6de4b989c03559da743f0f3ff6e48c638efe564736f6c63430008040033",
  "linkReferences": {},
  "deployedLinkReferences": {}
}