{
  "_format": "hh-sol-artifact-1",
  "contractName": "MarketPlace",
  "sourceName": "contracts/MarketPlace.sol",
  "abi": [
    {
      "inputs": [
        {
          "internalType": "uint256",
          "name": "_index",
          "type": "uint256"
        }
      ],
      "name": "buyNFT",
      "outputs": [],
      "stateMutability": "payable",
      "type": "function"
    },
    {
      "inputs": [],
      "name": "getItemsList",
      "outputs": [
        {
          "components": [
            {
              "internalType": "uint256",
              "name": "index",
              "type": "uint256"
            },
            {
              "internalType": "uint256",
              "name": "tokenID",
              "type": "uint256"
            },
            {
              "internalType": "uint256",
              "name": "price",
              "type": "uint256"
            },
            {
              "internalType": "address",
              "name": "tokenAddress",
              "type": "address"
            },
            {
              "internalType": "address payable",
              "name": "owner",
              "type": "address"
            },
            {
              "internalType": "string",
              "name": "url",
              "type": "string"
            }
          ],
          "internalType": "struct MarketPlace.Item[]",
          "name": "",
          "type": "tuple[]"
        }
      ],
      "stateMutability": "view",
      "type": "function"
    },
    {
      "inputs": [
        {
          "internalType": "uint256",
          "name": "",
          "type": "uint256"
        }
      ],
      "name": "items",
      "outputs": [
        {
          "internalType": "uint256",
          "name": "index",
          "type": "uint256"
        },
        {
          "internalType": "uint256",
          "name": "tokenID",
          "type": "uint256"
        },
        {
          "internalType": "uint256",
          "name": "price",
          "type": "uint256"
        },
        {
          "internalType": "address",
          "name": "tokenAddress",
          "type": "address"
        },
        {
          "internalType": "address payable",
          "name": "owner",
          "type": "address"
        },
        {
          "internalType": "string",
          "name": "url",
          "type": "string"
        }
      ],
      "stateMutability": "view",
      "type": "function"
    },
    {
      "inputs": [
        {
          "internalType": "uint256",
          "name": "_tokenID",
          "type": "uint256"
        },
        {
          "internalType": "uint256",
          "name": "_price",
          "type": "uint256"
        },
        {
          "internalType": "address",
          "name": "_tokenAddress",
          "type": "address"
        },
        {
          "internalType": "string",
          "name": "_url",
          "type": "string"
        }
      ],
      "name": "listForSale",
      "outputs": [],
      "stateMutability": "nonpayable",
      "type": "function"
    },
    {
      "inputs": [
        {
          "internalType": "address",
          "name": "",
          "type": "address"
        },
        {
          "internalType": "uint256",
          "name": "",
          "type": "uint256"
        }
      ],
      "name": "listedTokens",
      "outputs": [
        {
          "internalType": "bool",
          "name": "",
          "type": "bool"
        }
      ],
      "stateMutability": "view",
      "type": "function"
    },
    {
      "inputs": [],
      "name": "totalItems",
      "outputs": [
        {
          "internalType": "uint256",
          "name": "",
          "type": "uint256"
        }
      ],
      "stateMutability": "view",
      "type": "function"
    }
  ],
  "bytecode": "0x608060405234801561001057600080fd5b5061127c806100206000396000f3fe6080604052600436106100555760003560e01c80632799276d1461005a578063295f54991461007d57806351ed82881461009f5780638ff152a8146100b2578063bfb231d2146100d4578063d2c3b71014610106575b600080fd5b34801561006657600080fd5b506000546040519081526020015b60405180910390f35b34801561008957600080fd5b5061009d610098366004610f6a565b610151565b005b61009d6100ad366004610f52565b6105ec565b3480156100be57600080fd5b506100c7610b52565b6040516100749190611085565b3480156100e057600080fd5b506100f46100ef366004610f52565b610c85565b60405161007496959493929190611134565b34801561011257600080fd5b50610141610121366004610eda565b600160209081526000928352604080842090915290825290205460ff1681565b6040519015158152602001610074565b6000546040516331a9108f60e11b81526004810186905283906001600160a01b03821690636352211e9060240160206040518083038186803b15801561019657600080fd5b505afa1580156101aa573d6000803e3d6000fd5b505050506040513d601f19601f820116820180604052508101906101ce9190610eb7565b6001600160a01b0316336001600160a01b0316146102495760405162461bcd60e51b815260206004820152602d60248201527f4d61726b6574506c6163653a2053656e646572206973206e6f7420746865206f60448201526c3bb732b91037b3103a37b5b2b760991b60648201526084015b60405180910390fd5b6001600160a01b038416600090815260016020908152604080832089845290915290205460ff16156102c95760405162461bcd60e51b8152602060048201526024808201527f4d61726b6574506c6163653a20546f6b656e20697320616c7265616479206c696044820152631cdd195960e21b6064820152608401610240565b60405163020604bf60e21b8152600481018790526001600160a01b0382169063081812fc9060240160206040518083038186803b15801561030957600080fd5b505afa15801561031d573d6000803e3d6000fd5b505050506040513d601f19601f820116820180604052508101906103419190610eb7565b6001600160a01b0316306001600160a01b031614806103d8575060405163e985e9c560e01b81523360048201523060248201526001600160a01b0382169063e985e9c59060440160206040518083038186803b1580156103a057600080fd5b505afa1580156103b4573d6000803e3d6000fd5b505050506040513d601f19601f820116820180604052508101906103d89190610f32565b61044c576040805162461bcd60e51b81526020600482015260248101919091527f4d61726b6574506c6163653a204e46544d61726b6574506c616365206973206e60448201527f6f742070726f766964656420617070726f76616c20746f207472616e736665726064820152608401610240565b6040805160c08101825283815260208082018981529282018881526001600160a01b0380891660608501908152336080860190815260a086018a815260008054600181018255908052875160069091027f290decd9548b62a8d60345a988386fc84ba6bc95484008f6362f93160ef3e563810191825598517f290decd9548b62a8d60345a988386fc84ba6bc95484008f6362f93160ef3e5648a015594517f290decd9548b62a8d60345a988386fc84ba6bc95484008f6362f93160ef3e56589015591517f290decd9548b62a8d60345a988386fc84ba6bc95484008f6362f93160ef3e566880180549185166001600160a01b031992831617905590517f290decd9548b62a8d60345a988386fc84ba6bc95484008f6362f93160ef3e5678801805491909416911617909155518051939491936105b2937f290decd9548b62a8d60345a988386fc84ba6bc95484008f6362f93160ef3e568909301929190910190610d66565b5050506001600160a01b039093166000908152600160208181526040808420988452979052959020805460ff191690951790945550505050565b6000818154811061060d57634e487b7160e01b600052603260045260246000fd5b90600052602060002090600602016002015434146106875760405162461bcd60e51b815260206004820152603160248201527f4d61726b6574506c6163653a20506c65617365207061792074686520616d6f756044820152706e7420657175616c20746f20707269636560781b6064820152608401610240565b60008082815481106106a957634e487b7160e01b600052603260045260246000fd5b6000918252602082206003600690920201015481546001600160a01b03909116925082916342842e0e91859081106106f157634e487b7160e01b600052603260045260246000fd5b6000918252602082206004600690920201015481546001600160a01b039091169133918790811061073257634e487b7160e01b600052603260045260246000fd5b60009182526020909120600160069092020101546040516001600160e01b031960e086901b1681526001600160a01b0393841660048201529290911660248301526044820152606401600060405180830381600087803b15801561079557600080fd5b505af11580156107a9573d6000803e3d6000fd5b505060405163152a902d60e11b815260048101859052346024820152600092508291506001600160a01b03841690632a55205a90604401604080518083038186803b1580156107f757600080fd5b505afa15801561080b573d6000803e3d6000fd5b505050506040513d601f19601f8201168201806040525081019061082f9190610f05565b909250905034811580159061084c57506001600160a01b03831615155b156108965761085b8234611198565b6040519091506001600160a01b0384169083156108fc029084906000818181858888f19350505050158015610894573d6000803e3d6000fd5b505b600085815481106108b757634e487b7160e01b600052603260045260246000fd5b600091825260208220600460069092020101546040516001600160a01b039091169183156108fc02918491818181858888f193505050501580156108ff573d6000803e3d6000fd5b5060006001600080888154811061092657634e487b7160e01b600052603260045260246000fd5b906000526020600020906006020160030160009054906101000a90046001600160a01b03166001600160a01b03166001600160a01b03168152602001908152602001600020600080888154811061098d57634e487b7160e01b600052603260045260246000fd5b906000526020600020906006020160010154815260200190815260200160002060006101000a81548160ff02191690831515021790555060008590505b6000546109d990600190611198565b811015610ad35760006109ed826001611180565b81548110610a0b57634e487b7160e01b600052603260045260246000fd5b906000526020600020906006020160008281548110610a3a57634e487b7160e01b600052603260045260246000fd5b600091825260209091208254600690920201908155600180830154908201556002808301549082015560038083015490820180546001600160a01b039283166001600160a01b03199182161790915560048085015490840180549190931691161790556005808301805491830191610ab1906111af565b610abc929190610dea565b509050508080610acb906111ea565b9150506109ca565b506000805480610af357634e487b7160e01b600052603160045260246000fd5b60008281526020812060066000199093019283020181815560018101829055600281018290556003810180546001600160a01b0319908116909155600482018054909116905590610b476005830182610e65565b505090555050505050565b60606000805480602002602001604051908101604052809291908181526020016000905b82821015610c7c5760008481526020908190206040805160c081018252600686029092018054835260018101549383019390935260028301549082015260038201546001600160a01b039081166060830152600483015416608082015260058201805491929160a084019190610beb906111af565b80601f0160208091040260200160405190810160405280929190818152602001828054610c17906111af565b8015610c645780601f10610c3957610100808354040283529160200191610c64565b820191906000526020600020905b815481529060010190602001808311610c4757829003601f168201915b50505050508152505081526020019060010190610b76565b50505050905090565b60008181548110610c9557600080fd5b6000918252602090912060069091020180546001820154600283015460038401546004850154600586018054959750939592946001600160a01b0392831694919092169291610ce3906111af565b80601f0160208091040260200160405190810160405280929190818152602001828054610d0f906111af565b8015610d5c5780601f10610d3157610100808354040283529160200191610d5c565b820191906000526020600020905b815481529060010190602001808311610d3f57829003601f168201915b5050505050905086565b828054610d72906111af565b90600052602060002090601f016020900481019282610d945760008555610dda565b82601f10610dad57805160ff1916838001178555610dda565b82800160010185558215610dda579182015b82811115610dda578251825591602001919060010190610dbf565b50610de6929150610ea2565b5090565b828054610df6906111af565b90600052602060002090601f016020900481019282610e185760008555610dda565b82601f10610e295780548555610dda565b82800160010185558215610dda57600052602060002091601f016020900482015b82811115610dda578254825591600101919060010190610e4a565b508054610e71906111af565b6000825580601f10610e81575050565b601f016020900490600052602060002090810190610e9f9190610ea2565b50565b5b80821115610de65760008155600101610ea3565b600060208284031215610ec8578081fd5b8151610ed381611231565b9392505050565b60008060408385031215610eec578081fd5b8235610ef781611231565b946020939093013593505050565b60008060408385031215610f17578182fd5b8251610f2281611231565b6020939093015192949293505050565b600060208284031215610f43578081fd5b81518015158114610ed3578182fd5b600060208284031215610f63578081fd5b5035919050565b60008060008060808587031215610f7f578182fd5b84359350602085013592506040850135610f9881611231565b9150606085013567ffffffffffffffff80821115610fb4578283fd5b818701915087601f830112610fc7578283fd5b813581811115610fd957610fd961121b565b604051601f8201601f19908116603f011681019083821181831017156110015761100161121b565b816040528281528a6020848701011115611019578586fd5b82602086016020830137918201602001949094529598949750929550505050565b60008151808452815b8181101561105f57602081850181015186830182015201611043565b818111156110705782602083870101525b50601f01601f19169290920160200192915050565b60006020808301818452808551808352604092508286019150828160051b870101848801865b8381101561112657888303603f19018552815180518452878101518885015286810151878501526060808201516001600160a01b03908116918601919091526080808301519091169085015260a09081015160c0918501829052906111128186018361103a565b9689019694505050908601906001016110ab565b509098975050505050505050565b86815260208101869052604081018590526001600160a01b0384811660608301528316608082015260c060a082018190526000906111749083018461103a565b98975050505050505050565b6000821982111561119357611193611205565b500190565b6000828210156111aa576111aa611205565b500390565b600181811c908216806111c357607f821691505b602082108114156111e457634e487b7160e01b600052602260045260246000fd5b50919050565b60006000198214156111fe576111fe611205565b5060010190565b634e487b7160e01b600052601160045260246000fd5b634e487b7160e01b600052604160045260246000fd5b6001600160a01b0381168114610e9f57600080fdfea2646970667358221220e8acf451279020bfa7d3c8a9342ae4ccbb50042c3a3140db5630ffe7886f99dc64736f6c63430008040033",
  "linkReferences": {},
  "deployedLinkReferences": {}
}